{
  "_format": "hh-sol-artifact-1",
  "contractName": "ConnectFunBonding",
  "sourceName": "contracts/Time.sol",
  "abi": [
    {
      "inputs": [
        {
          "internalType": "contract IERC20",
          "name": "_reserve",
          "type": "address"
        },
        {
          "internalType": "uint256",
          "name": "_coef",
          "type": "uint256"
        },
        {
          "internalType": "address",
          "name": "_token",
          "type": "address"
        }
      ],
      "stateMutability": "nonpayable",
      "type": "constructor"
    },
    {
      "inputs": [],
      "name": "ReentrancyGuardReentrantCall",
      "type": "error"
    },
    {
      "inputs": [
        {
          "internalType": "address",
          "name": "token",
          "type": "address"
        }
      ],
      "name": "SafeERC20FailedOperation",
      "type": "error"
    },
    {
      "anonymous": false,
      "inputs": [
        {
          "indexed": true,
          "internalType": "address",
          "name": "user",
          "type": "address"
        },
        {
          "indexed": false,
          "internalType": "uint256",
          "name": "_minutes",
          "type": "uint256"
        }
      ],
      "name": "SessionConfirmed",
      "type": "event"
    },
    {
      "anonymous": false,
      "inputs": [
        {
          "indexed": true,
          "internalType": "address",
          "name": "user",
          "type": "address"
        },
        {
          "indexed": false,
          "internalType": "uint256",
          "name": "_minutes",
          "type": "uint256"
        }
      ],
      "name": "TimeBooked",
      "type": "event"
    },
    {
      "inputs": [],
      "name": "PREC",
      "outputs": [
        {
          "internalType": "uint256",
          "name": "",
          "type": "uint256"
        }
      ],
      "stateMutability": "view",
      "type": "function"
    },
    {
      "inputs": [
        {
          "internalType": "uint256",
          "name": "_minutes",
          "type": "uint256"
        }
      ],
      "name": "bookTime",
      "outputs": [],
      "stateMutability": "nonpayable",
      "type": "function"
    },
    {
      "inputs": [
        {
          "internalType": "address",
          "name": "",
          "type": "address"
        }
      ],
      "name": "bookedMinutes",
      "outputs": [
        {
          "internalType": "uint256",
          "name": "",
          "type": "uint256"
        }
      ],
      "stateMutability": "view",
      "type": "function"
    },
    {
      "inputs": [
        {
          "internalType": "uint256",
          "name": "amount",
          "type": "uint256"
        },
        {
          "internalType": "uint256",
          "name": "maxPay",
          "type": "uint256"
        }
      ],
      "name": "buy",
      "outputs": [],
      "stateMutability": "nonpayable",
      "type": "function"
    },
    {
      "inputs": [],
      "name": "coefficient",
      "outputs": [
        {
          "internalType": "uint256",
          "name": "",
          "type": "uint256"
        }
      ],
      "stateMutability": "view",
      "type": "function"
    },
    {
      "inputs": [
        {
          "internalType": "address",
          "name": "user",
          "type": "address"
        },
        {
          "internalType": "uint256",
          "name": "_minutes",
          "type": "uint256"
        }
      ],
      "name": "confirmSession",
      "outputs": [],
      "stateMutability": "nonpayable",
      "type": "function"
    },
    {
      "inputs": [
        {
          "internalType": "uint256",
          "name": "amount",
          "type": "uint256"
        }
      ],
      "name": "costToMint",
      "outputs": [
        {
          "internalType": "uint256",
          "name": "",
          "type": "uint256"
        }
      ],
      "stateMutability": "view",
      "type": "function"
    },
    {
      "inputs": [],
      "name": "creator",
      "outputs": [
        {
          "internalType": "address",
          "name": "",
          "type": "address"
        }
      ],
      "stateMutability": "view",
      "type": "function"
    },
    {
      "inputs": [],
      "name": "reserve",
      "outputs": [
        {
          "internalType": "contract IERC20",
          "name": "",
          "type": "address"
        }
      ],
      "stateMutability": "view",
      "type": "function"
    },
    {
      "inputs": [
        {
          "internalType": "uint256",
          "name": "amount",
          "type": "uint256"
        }
      ],
      "name": "rewardOnBurn",
      "outputs": [
        {
          "internalType": "uint256",
          "name": "",
          "type": "uint256"
        }
      ],
      "stateMutability": "view",
      "type": "function"
    },
    {
      "inputs": [
        {
          "internalType": "uint256",
          "name": "amount",
          "type": "uint256"
        },
        {
          "internalType": "uint256",
          "name": "minRefund",
          "type": "uint256"
        }
      ],
      "name": "sell",
      "outputs": [],
      "stateMutability": "nonpayable",
      "type": "function"
    },
    {
      "inputs": [],
      "name": "token",
      "outputs": [
        {
          "internalType": "contract ConnectToken",
          "name": "",
          "type": "address"
        }
      ],
      "stateMutability": "view",
      "type": "function"
    }
  ],
  "bytecode": "0x60a0604052670de0b6b3a764000060045534801561001c57600080fd5b506040516115b03803806115b0833981810160405281019061003e91906101e2565b600160008190555082600260006101000a81548173ffffffffffffffffffffffffffffffffffffffff021916908373ffffffffffffffffffffffffffffffffffffffff1602179055508160038190555080600160006101000a81548173ffffffffffffffffffffffffffffffffffffffff021916908373ffffffffffffffffffffffffffffffffffffffff1602179055503373ffffffffffffffffffffffffffffffffffffffff1660808173ffffffffffffffffffffffffffffffffffffffff1681525050505050610235565b600080fd5b600073ffffffffffffffffffffffffffffffffffffffff82169050919050565b600061013b82610110565b9050919050565b600061014d82610130565b9050919050565b61015d81610142565b811461016857600080fd5b50565b60008151905061017a81610154565b92915050565b6000819050919050565b61019381610180565b811461019e57600080fd5b50565b6000815190506101b08161018a565b92915050565b6101bf81610130565b81146101ca57600080fd5b50565b6000815190506101dc816101b6565b92915050565b6000806000606084860312156101fb576101fa61010b565b5b60006102098682870161016b565b935050602061021a868287016101a1565b925050604061022b868287016101cd565b9150509250925092565b60805161135961025760003960008181610251015261041201526113596000f3fe608060405234801561001057600080fd5b50600436106100b45760003560e01c8063af6def7d11610071578063af6def7d1461017b578063cd3293de146101ab578063d6febde8146101c9578063d79875eb146101e5578063f5ad797c14610201578063fc0c546a14610231576100b4565b806302d05d3f146100b95780631b9c515b146100d75780632282870e146100f55780633f01af70146101135780634a48b6de14610143578063911a0f7d1461015f575b600080fd5b6100c161024f565b6040516100ce9190610cdf565b60405180910390f35b6100df610273565b6040516100ec9190610d13565b60405180910390f35b6100fd610279565b60405161010a9190610d13565b60405180910390f35b61012d60048036038101906101289190610d5f565b61027f565b60405161013a9190610d13565b60405180910390f35b61015d60048036038101906101589190610db8565b610297565b005b61017960048036038101906101749190610de5565b610410565b005b61019560048036038101906101909190610db8565b6105c8565b6040516101a29190610d13565b60405180910390f35b6101b36106d0565b6040516101c09190610e84565b60405180910390f35b6101e360048036038101906101de9190610e9f565b6106f6565b005b6101ff60048036038101906101fa9190610e9f565b610839565b005b61021b60048036038101906102169190610db8565b61097a565b6040516102289190610d13565b60405180910390f35b610239610a3f565b6040516102469190610f00565b60405180910390f35b7f000000000000000000000000000000000000000000000000000000000000000081565b60035481565b60045481565b60056020528060005260406000206000915090505481565b600081116102da576040517f08c379a00000000000000000000000000000000000000000000000000000000081526004016102d190610f78565b60405180910390fd5b600160009054906101000a900473ffffffffffffffffffffffffffffffffffffffff1673ffffffffffffffffffffffffffffffffffffffff16639dc29fac33836040518363ffffffff1660e01b8152600401610337929190610f98565b600060405180830381600087803b15801561035157600080fd5b505af1158015610365573d6000803e3d6000fd5b5050505080600560003373ffffffffffffffffffffffffffffffffffffffff1673ffffffffffffffffffffffffffffffffffffffff16815260200190815260200160002060008282546103b89190610ff0565b925050819055503373ffffffffffffffffffffffffffffffffffffffff167f86556b4b8cbb1885f4d3d6bc2edf2ed379389e61d645abc6d5657236fdedd45b826040516104059190610d13565b60405180910390a250565b7f000000000000000000000000000000000000000000000000000000000000000073ffffffffffffffffffffffffffffffffffffffff163373ffffffffffffffffffffffffffffffffffffffff161461049e576040517f08c379a000000000000000000000000000000000000000000000000000000000815260040161049590611070565b60405180910390fd5b80600560008473ffffffffffffffffffffffffffffffffffffffff1673ffffffffffffffffffffffffffffffffffffffff168152602001908152602001600020541015610520576040517f08c379a0000000000000000000000000000000000000000000000000000000008152600401610517906110dc565b60405180910390fd5b80600560008473ffffffffffffffffffffffffffffffffffffffff1673ffffffffffffffffffffffffffffffffffffffff168152602001908152602001600020600082825461056f91906110fc565b925050819055508173ffffffffffffffffffffffffffffffffffffffff167f6d4244a4e1d855eca696f88fa1ee8bf2e3b6e2f012c301d3da616853b5c3bb12826040516105bc9190610d13565b60405180910390a25050565b600080600160009054906101000a900473ffffffffffffffffffffffffffffffffffffffff1673ffffffffffffffffffffffffffffffffffffffff166318160ddd6040518163ffffffff1660e01b8152600401602060405180830381865afa158015610638573d6000803e3d6000fd5b505050506040513d601f19601f8201168201806040525081019061065c9190611145565b9050808311156106a1576040517f08c379a0000000000000000000000000000000000000000000000000000000008152600401610698906111be565b60405180910390fd5b6106b583826106b091906110fc565b610a65565b6106be82610a65565b6106c891906110fc565b915050919050565b600260009054906101000a900473ffffffffffffffffffffffffffffffffffffffff1681565b6106fe610aab565b60006107098361097a565b90508181111561074e576040517f08c379a00000000000000000000000000000000000000000000000000000000081526004016107459061122a565b60405180910390fd5b61079d333083600260009054906101000a900473ffffffffffffffffffffffffffffffffffffffff1673ffffffffffffffffffffffffffffffffffffffff16610af1909392919063ffffffff16565b600160009054906101000a900473ffffffffffffffffffffffffffffffffffffffff1673ffffffffffffffffffffffffffffffffffffffff166340c10f1933856040518363ffffffff1660e01b81526004016107fa929190610f98565b600060405180830381600087803b15801561081457600080fd5b505af1158015610828573d6000803e3d6000fd5b5050505050610835610b73565b5050565b610841610aab565b600061084c836105c8565b905081811015610891576040517f08c379a00000000000000000000000000000000000000000000000000000000081526004016108889061122a565b60405180910390fd5b600160009054906101000a900473ffffffffffffffffffffffffffffffffffffffff1673ffffffffffffffffffffffffffffffffffffffff16639dc29fac33856040518363ffffffff1660e01b81526004016108ee929190610f98565b600060405180830381600087803b15801561090857600080fd5b505af115801561091c573d6000803e3d6000fd5b5050505061096d3382600260009054906101000a900473ffffffffffffffffffffffffffffffffffffffff1673ffffffffffffffffffffffffffffffffffffffff16610b7d9092919063ffffffff16565b50610976610b73565b5050565b600080600160009054906101000a900473ffffffffffffffffffffffffffffffffffffffff1673ffffffffffffffffffffffffffffffffffffffff166318160ddd6040518163ffffffff1660e01b8152600401602060405180830381865afa1580156109ea573d6000803e3d6000fd5b505050506040513d601f19601f82011682018060405250810190610a0e9190611145565b9050610a1981610a65565b610a2d8483610a289190610ff0565b610a65565b610a3791906110fc565b915050919050565b600160009054906101000a900473ffffffffffffffffffffffffffffffffffffffff1681565b60006004546003610a76919061124a565b828384600354610a86919061124a565b610a90919061124a565b610a9a919061124a565b610aa491906112bb565b9050919050565b600260005403610ae7576040517f3ee5aeb500000000000000000000000000000000000000000000000000000000815260040160405180910390fd5b6002600081905550565b610b6d848573ffffffffffffffffffffffffffffffffffffffff166323b872dd868686604051602401610b26939291906112ec565b604051602081830303815290604052915060e01b6020820180517bffffffffffffffffffffffffffffffffffffffffffffffffffffffff8381831617835250505050610bfc565b50505050565b6001600081905550565b610bf7838473ffffffffffffffffffffffffffffffffffffffff1663a9059cbb8585604051602401610bb0929190610f98565b604051602081830303815290604052915060e01b6020820180517bffffffffffffffffffffffffffffffffffffffffffffffffffffffff8381831617835250505050610bfc565b505050565b600080602060008451602086016000885af180610c1f576040513d6000823e3d81fd5b3d925060005191505060008214610c3a576001811415610c56565b60008473ffffffffffffffffffffffffffffffffffffffff163b145b15610c9857836040517f5274afe7000000000000000000000000000000000000000000000000000000008152600401610c8f9190610cdf565b60405180910390fd5b50505050565b600073ffffffffffffffffffffffffffffffffffffffff82169050919050565b6000610cc982610c9e565b9050919050565b610cd981610cbe565b82525050565b6000602082019050610cf46000830184610cd0565b92915050565b6000819050919050565b610d0d81610cfa565b82525050565b6000602082019050610d286000830184610d04565b92915050565b600080fd5b610d3c81610cbe565b8114610d4757600080fd5b50565b600081359050610d5981610d33565b92915050565b600060208284031215610d7557610d74610d2e565b5b6000610d8384828501610d4a565b91505092915050565b610d9581610cfa565b8114610da057600080fd5b50565b600081359050610db281610d8c565b92915050565b600060208284031215610dce57610dcd610d2e565b5b6000610ddc84828501610da3565b91505092915050565b60008060408385031215610dfc57610dfb610d2e565b5b6000610e0a85828601610d4a565b9250506020610e1b85828601610da3565b9150509250929050565b6000819050919050565b6000610e4a610e45610e4084610c9e565b610e25565b610c9e565b9050919050565b6000610e5c82610e2f565b9050919050565b6000610e6e82610e51565b9050919050565b610e7e81610e63565b82525050565b6000602082019050610e996000830184610e75565b92915050565b60008060408385031215610eb657610eb5610d2e565b5b6000610ec485828601610da3565b9250506020610ed585828601610da3565b9150509250929050565b6000610eea82610e51565b9050919050565b610efa81610edf565b82525050565b6000602082019050610f156000830184610ef1565b92915050565b600082825260208201905092915050565b7f496e76616c696420626f6f6b696e670000000000000000000000000000000000600082015250565b6000610f62600f83610f1b565b9150610f6d82610f2c565b602082019050919050565b60006020820190508181036000830152610f9181610f55565b9050919050565b6000604082019050610fad6000830185610cd0565b610fba6020830184610d04565b9392505050565b7f4e487b7100000000000000000000000000000000000000000000000000000000600052601160045260246000fd5b6000610ffb82610cfa565b915061100683610cfa565b925082820190508082111561101e5761101d610fc1565b5b92915050565b7f4f6e6c792063726561746f722063616e20636f6e6669726d0000000000000000600082015250565b600061105a601883610f1b565b915061106582611024565b602082019050919050565b600060208201905081810360008301526110898161104d565b9050919050565b7f4e6f7420656e6f75676820626f6f6b6564000000000000000000000000000000600082015250565b60006110c6601183610f1b565b91506110d182611090565b602082019050919050565b600060208201905081810360008301526110f5816110b9565b9050919050565b600061110782610cfa565b915061111283610cfa565b925082820390508181111561112a57611129610fc1565b5b92915050565b60008151905061113f81610d8c565b92915050565b60006020828403121561115b5761115a610d2e565b5b600061116984828501611130565b91505092915050565b7f6f7665726275726e000000000000000000000000000000000000000000000000600082015250565b60006111a8600883610f1b565b91506111b382611172565b602082019050919050565b600060208201905081810360008301526111d78161119b565b9050919050565b7f736c697070616765000000000000000000000000000000000000000000000000600082015250565b6000611214600883610f1b565b915061121f826111de565b602082019050919050565b6000602082019050818103600083015261124381611207565b9050919050565b600061125582610cfa565b915061126083610cfa565b925082820261126e81610cfa565b9150828204841483151761128557611284610fc1565b5b5092915050565b7f4e487b7100000000000000000000000000000000000000000000000000000000600052601260045260246000fd5b60006112c682610cfa565b91506112d183610cfa565b9250826112e1576112e061128c565b5b828204905092915050565b60006060820190506113016000830186610cd0565b61130e6020830185610cd0565b61131b6040830184610d04565b94935050505056fea26469706673582212204648a17d14ede6a14b9c6b0ea30bc3f46827c5104a991b723e0f7987cb6eee6d64736f6c634300081c0033",
  "linkReferences": {},
  "deployedLinkReferences": {}
}